{
  "_format": "hh-sol-artifact-1",
  "contractName": "test",
  "sourceName": "contracts/Lock.sol",
  "abi": [
    {
      "inputs": [
        {
          "internalType": "address",
          "name": "",
          "type": "address"
        }
      ],
      "name": "Users",
      "outputs": [
        {
          "internalType": "address",
          "name": "UserAddr",
          "type": "address"
        },
        {
          "internalType": "uint256",
          "name": "balance",
          "type": "uint256"
        },
        {
          "internalType": "uint256",
          "name": "amount_landed",
          "type": "uint256"
        },
        {
          "internalType": "uint256",
          "name": "rate",
          "type": "uint256"
        },
        {
          "internalType": "bytes32",
          "name": "HashCode",
          "type": "bytes32"
        }
      ],
      "stateMutability": "view",
      "type": "function"
    },
    {
      "inputs": [],
      "name": "addUser",
      "outputs": [],
      "stateMutability": "nonpayable",
      "type": "function"
    },
    {
      "inputs": [],
      "name": "getLanders",
      "outputs": [
        {
          "components": [
            {
              "internalType": "address",
              "name": "LanderAddr",
              "type": "address"
            },
            {
              "internalType": "uint256",
              "name": "amount_landed",
              "type": "uint256"
            },
            {
              "internalType": "uint256",
              "name": "LandRate",
              "type": "uint256"
            },
            {
              "internalType": "bytes32",
              "name": "HashCode",
              "type": "bytes32"
            }
          ],
          "internalType": "struct test.Landers[]",
          "name": "",
          "type": "tuple[]"
        }
      ],
      "stateMutability": "view",
      "type": "function"
    },
    {
      "inputs": [],
      "name": "getUserData",
      "outputs": [
        {
          "components": [
            {
              "internalType": "address",
              "name": "UserAddr",
              "type": "address"
            },
            {
              "internalType": "uint256",
              "name": "balance",
              "type": "uint256"
            },
            {
              "internalType": "uint256",
              "name": "amount_landed",
              "type": "uint256"
            },
            {
              "internalType": "uint256",
              "name": "rate",
              "type": "uint256"
            },
            {
              "internalType": "bytes32",
              "name": "HashCode",
              "type": "bytes32"
            },
            {
              "components": [
                {
                  "internalType": "bytes32",
                  "name": "HashCode",
                  "type": "bytes32"
                },
                {
                  "internalType": "address",
                  "name": "borrowers_addr",
                  "type": "address"
                },
                {
                  "internalType": "uint256",
                  "name": "amount_given",
                  "type": "uint256"
                },
                {
                  "internalType": "bool",
                  "name": "isPaid",
                  "type": "bool"
                }
              ],
              "internalType": "struct test.Borrowers[]",
              "name": "borrowers",
              "type": "tuple[]"
            },
            {
              "components": [
                {
                  "internalType": "bytes32",
                  "name": "HashCode",
                  "type": "bytes32"
                },
                {
                  "internalType": "uint256",
                  "name": "amount_borrowed",
                  "type": "uint256"
                },
                {
                  "internalType": "uint256",
                  "name": "amount_to_be_return",
                  "type": "uint256"
                }
              ],
              "internalType": "struct test.Borrowed[]",
              "name": "borrowed",
              "type": "tuple[]"
            }
          ],
          "internalType": "struct test.UserData",
          "name": "",
          "type": "tuple"
        }
      ],
      "stateMutability": "view",
      "type": "function"
    },
    {
      "inputs": [],
      "name": "isUserDoesNotExist",
      "outputs": [
        {
          "internalType": "bool",
          "name": "",
          "type": "bool"
        }
      ],
      "stateMutability": "view",
      "type": "function"
    },
    {
      "inputs": [],
      "name": "isUserExist",
      "outputs": [
        {
          "internalType": "bool",
          "name": "",
          "type": "bool"
        }
      ],
      "stateMutability": "view",
      "type": "function"
    },
    {
      "inputs": [
        {
          "internalType": "bytes32",
          "name": "_HashCode",
          "type": "bytes32"
        },
        {
          "internalType": "uint256",
          "name": "_amount_borrowed",
          "type": "uint256"
        },
        {
          "internalType": "uint256",
          "name": "_amount_to_be_return",
          "type": "uint256"
        }
      ],
      "name": "toBorrow",
      "outputs": [],
      "stateMutability": "payable",
      "type": "function"
    },
    {
      "inputs": [
        {
          "internalType": "uint256",
          "name": "_amount",
          "type": "uint256"
        },
        {
          "internalType": "uint256",
          "name": "_rate",
          "type": "uint256"
        }
      ],
      "name": "toLand",
      "outputs": [],
      "stateMutability": "payable",
      "type": "function"
    }
  ],
  "bytecode": "0x608060405234801561001057600080fd5b50611879806100206000396000f3fe60806040526004361061007b5760003560e01c80638d4caa1b1161004e5780638d4caa1b1461010957806399b956a014610134578063d6789f5c14610175578063ed8e811e146101a05761007b565b806322e8c87d14610080578063455c928c146100ab57806354b591c6146100c25780638b20343f146100de575b600080fd5b34801561008c57600080fd5b506100956101bc565b6040516100a29190611276565b60405180910390f35b3480156100b757600080fd5b506100c06103f1565b005b6100dc60048036038101906100d791906112c9565b610661565b005b3480156100ea57600080fd5b506100f3610962565b6040516101009190611318565b60405180910390f35b34801561011557600080fd5b5061011e610a09565b60405161012b9190611318565b60405180910390f35b34801561014057600080fd5b5061015b6004803603810190610156919061135f565b610ab0565b60405161016c9594939291906113b9565b60405180910390f35b34801561018157600080fd5b5061018a610b06565b6040516101979190611510565b60405180910390f35b6101ba60048036038101906101b5919061155e565b610bd9565b005b6101c4610efa565b6000803373ffffffffffffffffffffffffffffffffffffffff1673ffffffffffffffffffffffffffffffffffffffff1681526020019081526020016000206040518060e00160405290816000820160009054906101000a900473ffffffffffffffffffffffffffffffffffffffff1673ffffffffffffffffffffffffffffffffffffffff1673ffffffffffffffffffffffffffffffffffffffff1681526020016001820154815260200160028201548152602001600382015481526020016004820154815260200160058201805480602002602001604051908101604052809291908181526020016000905b828210156103675783829060005260206000209060040201604051806080016040529081600082015481526020016001820160009054906101000a900473ffffffffffffffffffffffffffffffffffffffff1673ffffffffffffffffffffffffffffffffffffffff1673ffffffffffffffffffffffffffffffffffffffff168152602001600282015481526020016003820160009054906101000a900460ff161515151581525050815260200190600101906102b0565b50505050815260200160068201805480602002602001604051908101604052809291908181526020016000905b828210156103e45783829060005260206000209060030201604051806060016040529081600082015481526020016001820154815260200160028201548152505081526020019060010190610394565b5050505081525050905090565b6103f9610a09565b610438576040517f08c379a000000000000000000000000000000000000000000000000000000000815260040161042f9061160e565b60405180910390fd5b6000339050806000808373ffffffffffffffffffffffffffffffffffffffff1673ffffffffffffffffffffffffffffffffffffffff16815260200190815260200160002060000160006101000a81548173ffffffffffffffffffffffffffffffffffffffff021916908373ffffffffffffffffffffffffffffffffffffffff1602179055508073ffffffffffffffffffffffffffffffffffffffff16316000808373ffffffffffffffffffffffffffffffffffffffff1673ffffffffffffffffffffffffffffffffffffffff16815260200190815260200160002060010181905550336000808373ffffffffffffffffffffffffffffffffffffffff1673ffffffffffffffffffffffffffffffffffffffff168152602001908152602001600020600101544260405160200161057093929190611697565b604051602081830303815290604052805190602001206000808373ffffffffffffffffffffffffffffffffffffffff1673ffffffffffffffffffffffffffffffffffffffff1681526020019081526020016000206004018190555080600160008060008573ffffffffffffffffffffffffffffffffffffffff1673ffffffffffffffffffffffffffffffffffffffff16815260200190815260200160002060040154815260200190815260200160002060006101000a81548173ffffffffffffffffffffffffffffffffffffffff021916908373ffffffffffffffffffffffffffffffffffffffff16021790555050565b610669610962565b6106a8576040517f08c379a000000000000000000000000000000000000000000000000000000000815260040161069f90611720565b60405180910390fd5b816000803373ffffffffffffffffffffffffffffffffffffffff1673ffffffffffffffffffffffffffffffffffffffff16815260200190815260200160002060010154101561072c576040517f08c379a00000000000000000000000000000000000000000000000000000000081526004016107239061178c565b60405180910390fd5b61073581610ef0565b6000803373ffffffffffffffffffffffffffffffffffffffff1673ffffffffffffffffffffffffffffffffffffffff16815260200190815260200160002060030181905550816000803373ffffffffffffffffffffffffffffffffffffffff1673ffffffffffffffffffffffffffffffffffffffff16815260200190815260200160002060020160008282546107cb91906117db565b92505081905550600260405180608001604052803373ffffffffffffffffffffffffffffffffffffffff1681526020016000803373ffffffffffffffffffffffffffffffffffffffff1673ffffffffffffffffffffffffffffffffffffffff1681526020019081526020016000206002015481526020016000803373ffffffffffffffffffffffffffffffffffffffff1673ffffffffffffffffffffffffffffffffffffffff1681526020019081526020016000206003015481526020016000803373ffffffffffffffffffffffffffffffffffffffff1673ffffffffffffffffffffffffffffffffffffffff16815260200190815260200160002060040154815250908060018154018082558091505060019003906000526020600020906004020160009091909190915060008201518160000160006101000a81548173ffffffffffffffffffffffffffffffffffffffff021916908373ffffffffffffffffffffffffffffffffffffffff16021790555060208201518160010155604082015181600201556060820151816003015550505050565b60008073ffffffffffffffffffffffffffffffffffffffff166000803373ffffffffffffffffffffffffffffffffffffffff1673ffffffffffffffffffffffffffffffffffffffff16815260200190815260200160002060000160009054906101000a900473ffffffffffffffffffffffffffffffffffffffff1673ffffffffffffffffffffffffffffffffffffffff1614610a015760019050610a06565b600090505b90565b60008073ffffffffffffffffffffffffffffffffffffffff166000803373ffffffffffffffffffffffffffffffffffffffff1673ffffffffffffffffffffffffffffffffffffffff16815260200190815260200160002060000160009054906101000a900473ffffffffffffffffffffffffffffffffffffffff1673ffffffffffffffffffffffffffffffffffffffff1603610aa85760019050610aad565b600090505b90565b60006020528060005260406000206000915090508060000160009054906101000a900473ffffffffffffffffffffffffffffffffffffffff16908060010154908060020154908060030154908060040154905085565b60606002805480602002602001604051908101604052809291908181526020016000905b82821015610bd057838290600052602060002090600402016040518060800160405290816000820160009054906101000a900473ffffffffffffffffffffffffffffffffffffffff1673ffffffffffffffffffffffffffffffffffffffff1673ffffffffffffffffffffffffffffffffffffffff168152602001600182015481526020016002820154815260200160038201548152505081526020019060010190610b2a565b50505050905090565b610be1610962565b610c20576040517f08c379a0000000000000000000000000000000000000000000000000000000008152600401610c1790611720565b60405180910390fd5b3373ffffffffffffffffffffffffffffffffffffffff166108fc839081150290604051600060405180830381858888f19350505050158015610c66573d6000803e3d6000fd5b506000803373ffffffffffffffffffffffffffffffffffffffff1673ffffffffffffffffffffffffffffffffffffffff168152602001908152602001600020600601604051806060016040528085815260200184815260200183815250908060018154018082558091505060019003906000526020600020906003020160009091909190915060008201518160000155602082015181600101556040820151816002015550506000806001600086815260200190815260200160002060009054906101000a900473ffffffffffffffffffffffffffffffffffffffff1673ffffffffffffffffffffffffffffffffffffffff1673ffffffffffffffffffffffffffffffffffffffff16815260200190815260200160002060050160405180608001604052808581526020013373ffffffffffffffffffffffffffffffffffffffff1681526020018481526020016000151581525090806001815401808255809150506001900390600052602060002090600402016000909190919091506000820151816000015560208201518160010160006101000a81548173ffffffffffffffffffffffffffffffffffffffff021916908373ffffffffffffffffffffffffffffffffffffffff1602179055506040820151816002015560608201518160030160006101000a81548160ff0219169083151502179055505050816000806001600087815260200190815260200160002060009054906101000a900473ffffffffffffffffffffffffffffffffffffffff1673ffffffffffffffffffffffffffffffffffffffff1673ffffffffffffffffffffffffffffffffffffffff1681526020019081526020016000206002016000828254610ee4919061180f565b92505081905550505050565b6000819050919050565b6040518060e00160405280600073ffffffffffffffffffffffffffffffffffffffff1681526020016000815260200160008152602001600081526020016000801916815260200160608152602001606081525090565b600073ffffffffffffffffffffffffffffffffffffffff82169050919050565b6000610f7b82610f50565b9050919050565b610f8b81610f70565b82525050565b6000819050919050565b610fa481610f91565b82525050565b6000819050919050565b610fbd81610faa565b82525050565b600081519050919050565b600082825260208201905092915050565b6000819050602082019050919050565b60008115159050919050565b61100481610fef565b82525050565b6080820160008201516110206000850182610fb4565b5060208201516110336020850182610f82565b5060408201516110466040850182610f9b565b5060608201516110596060850182610ffb565b50505050565b600061106b838361100a565b60808301905092915050565b6000602082019050919050565b600061108f82610fc3565b6110998185610fce565b93506110a483610fdf565b8060005b838110156110d55781516110bc888261105f565b97506110c783611077565b9250506001810190506110a8565b5085935050505092915050565b600081519050919050565b600082825260208201905092915050565b6000819050602082019050919050565b6060820160008201516111246000850182610fb4565b5060208201516111376020850182610f9b565b50604082015161114a6040850182610f9b565b50505050565b600061115c838361110e565b60608301905092915050565b6000602082019050919050565b6000611180826110e2565b61118a81856110ed565b9350611195836110fe565b8060005b838110156111c65781516111ad8882611150565b97506111b883611168565b925050600181019050611199565b5085935050505092915050565b600060e0830160008301516111eb6000860182610f82565b5060208301516111fe6020860182610f9b565b5060408301516112116040860182610f9b565b5060608301516112246060860182610f9b565b5060808301516112376080860182610fb4565b5060a083015184820360a086015261124f8282611084565b91505060c083015184820360c08601526112698282611175565b9150508091505092915050565b6000602082019050818103600083015261129081846111d3565b905092915050565b600080fd5b6112a681610f91565b81146112b157600080fd5b50565b6000813590506112c38161129d565b92915050565b600080604083850312156112e0576112df611298565b5b60006112ee858286016112b4565b92505060206112ff858286016112b4565b9150509250929050565b61131281610fef565b82525050565b600060208201905061132d6000830184611309565b92915050565b61133c81610f70565b811461134757600080fd5b50565b60008135905061135981611333565b92915050565b60006020828403121561137557611374611298565b5b60006113838482850161134a565b91505092915050565b61139581610f70565b82525050565b6113a481610f91565b82525050565b6113b381610faa565b82525050565b600060a0820190506113ce600083018861138c565b6113db602083018761139b565b6113e8604083018661139b565b6113f5606083018561139b565b61140260808301846113aa565b9695505050505050565b600081519050919050565b600082825260208201905092915050565b6000819050602082019050919050565b60808201600082015161144e6000850182610f82565b5060208201516114616020850182610f9b565b5060408201516114746040850182610f9b565b5060608201516114876060850182610fb4565b50505050565b60006114998383611438565b60808301905092915050565b6000602082019050919050565b60006114bd8261140c565b6114c78185611417565b93506114d283611428565b8060005b838110156115035781516114ea888261148d565b97506114f5836114a5565b9250506001810190506114d6565b5085935050505092915050565b6000602082019050818103600083015261152a81846114b2565b905092915050565b61153b81610faa565b811461154657600080fd5b50565b60008135905061155881611532565b92915050565b60008060006060848603121561157757611576611298565b5b600061158586828701611549565b9350506020611596868287016112b4565b92505060406115a7868287016112b4565b9150509250925092565b600082825260208201905092915050565b7f5573657220616c72656164792045786973740000000000000000000000000000600082015250565b60006115f86012836115b1565b9150611603826115c2565b602082019050919050565b60006020820190508181036000830152611627816115eb565b9050919050565b60008160601b9050919050565b60006116468261162e565b9050919050565b60006116588261163b565b9050919050565b61167061166b82610f70565b61164d565b82525050565b6000819050919050565b61169161168c82610f91565b611676565b82525050565b60006116a3828661165f565b6014820191506116b38285611680565b6020820191506116c38284611680565b602082019150819050949350505050565b7f5573657220446f6573204e6f7420457869737400000000000000000000000000600082015250565b600061170a6013836115b1565b9150611715826116d4565b602082019050919050565b60006020820190508181036000830152611739816116fd565b9050919050565b7f696e73756666696369656e742062616c616e6365000000000000000000000000600082015250565b60006117766014836115b1565b915061178182611740565b602082019050919050565b600060208201905081810360008301526117a581611769565b9050919050565b7f4e487b7100000000000000000000000000000000000000000000000000000000600052601160045260246000fd5b60006117e682610f91565b91506117f183610f91565b9250828201905080821115611809576118086117ac565b5b92915050565b600061181a82610f91565b915061182583610f91565b925082820390508181111561183d5761183c6117ac565b5b9291505056fea26469706673582212206eb8202d67398423e4b6ac8678d50627f0fc6ef2bb165035e7491557d76eb17e64736f6c63430008180033",
  "linkReferences": {},
  "deployedLinkReferences": {}
}