{
  "contractName": "BorrowLend",
  "abi": [
    {
      "inputs": [
        {
          "internalType": "bytes32",
          "name": "",
          "type": "bytes32"
        }
      ],
      "name": "availableLoans",
      "outputs": [
        {
          "internalType": "address",
          "name": "owner",
          "type": "address"
        },
        {
          "internalType": "uint256",
          "name": "amount",
          "type": "uint256"
        },
        {
          "internalType": "uint256",
          "name": "interest",
          "type": "uint256"
        },
        {
          "internalType": "uint256",
          "name": "timestamp",
          "type": "uint256"
        },
        {
          "internalType": "bool",
          "name": "isPaid",
          "type": "bool"
        }
      ],
      "stateMutability": "view",
      "type": "function"
    },
    {
      "inputs": [
        {
          "internalType": "uint256",
          "name": "",
          "type": "uint256"
        }
      ],
      "name": "availableLoansKeys",
      "outputs": [
        {
          "internalType": "bytes32",
          "name": "",
          "type": "bytes32"
        }
      ],
      "stateMutability": "view",
      "type": "function"
    },
    {
      "inputs": [
        {
          "internalType": "bytes32",
          "name": "",
          "type": "bytes32"
        },
        {
          "internalType": "uint256",
          "name": "",
          "type": "uint256"
        }
      ],
      "name": "loansTaken",
      "outputs": [
        {
          "internalType": "address",
          "name": "owner",
          "type": "address"
        },
        {
          "internalType": "uint256",
          "name": "amount",
          "type": "uint256"
        },
        {
          "internalType": "uint256",
          "name": "interest",
          "type": "uint256"
        },
        {
          "internalType": "uint256",
          "name": "timestamp",
          "type": "uint256"
        },
        {
          "internalType": "bool",
          "name": "isPaid",
          "type": "bool"
        }
      ],
      "stateMutability": "view",
      "type": "function"
    },
    {
      "inputs": [
        {
          "internalType": "uint256",
          "name": "_amount",
          "type": "uint256"
        },
        {
          "internalType": "uint256",
          "name": "_interest",
          "type": "uint256"
        }
      ],
      "name": "createLoan",
      "outputs": [],
      "stateMutability": "payable",
      "type": "function"
    },
    {
      "inputs": [
        {
          "internalType": "bytes32",
          "name": "_loanId",
          "type": "bytes32"
        },
        {
          "internalType": "uint256",
          "name": "_amount",
          "type": "uint256"
        }
      ],
      "name": "getLoan",
      "outputs": [],
      "stateMutability": "nonpayable",
      "type": "function"
    },
    {
      "inputs": [
        {
          "internalType": "bytes32",
          "name": "_loanId",
          "type": "bytes32"
        }
      ],
      "name": "repayLoan",
      "outputs": [],
      "stateMutability": "payable",
      "type": "function"
    },
    {
      "inputs": [],
      "name": "getAvailableLoans",
      "outputs": [
        {
          "components": [
            {
              "internalType": "address",
              "name": "owner",
              "type": "address"
            },
            {
              "internalType": "uint256",
              "name": "amount",
              "type": "uint256"
            },
            {
              "internalType": "uint256",
              "name": "interest",
              "type": "uint256"
            },
            {
              "internalType": "uint256",
              "name": "timestamp",
              "type": "uint256"
            },
            {
              "internalType": "bool",
              "name": "isPaid",
              "type": "bool"
            }
          ],
          "internalType": "struct BorrowLend.Loan[]",
          "name": "",
          "type": "tuple[]"
        }
      ],
      "stateMutability": "view",
      "type": "function"
    },
    {
      "inputs": [],
      "name": "getAvailableLoansKeys",
      "outputs": [
        {
          "internalType": "bytes32[]",
          "name": "",
          "type": "bytes32[]"
        }
      ],
      "stateMutability": "view",
      "type": "function"
    }
  ],
  "bytecode": "0x608060405234801561000f575f80fd5b506112438061001d5f395ff3fe60806040526004361061007a575f3560e01c806398cd90b51161004d57806398cd90b51461012e578063b07cfd341461014a578063cd3e1a3114610172578063d1b54b65146101ae5761007a565b80632324a6ff1461007e5780633f84210f146100a8578063407a4e7d146100c45780635ea002e5146100ee575b5f80fd5b348015610089575f80fd5b506100926101ee565b60405161009f9190610b2b565b60405180910390f35b6100c260048036038101906100bd9190610b79565b610244565b005b3480156100cf575f80fd5b506100d86104a1565b6040516100e59190610d23565b60405180910390f35b3480156100f9575f80fd5b50610114600480360381019061010f9190610d6d565b61060a565b604051610125959493929190610dd8565b60405180910390f35b61014860048036038101906101439190610e29565b610681565b005b348015610155575f80fd5b50610170600480360381019061016b9190610d6d565b6107bd565b005b34801561017d575f80fd5b5061019860048036038101906101939190610e67565b6109ad565b6040516101a59190610ea1565b60405180910390f35b3480156101b9575f80fd5b506101d460048036038101906101cf9190610b79565b6109cd565b6040516101e5959493929190610dd8565b60405180910390f35b6060600180548060200260200160405190810160405280929190818152602001828054801561023a57602002820191905f5260205f20905b815481526020019060010190808311610226575b5050505050905090565b5f805f8381526020019081526020015f206001015460645f808581526020019081526020015f20600201545f808681526020019081526020015f206001015461028d9190610ee7565b6102979190610f55565b6102a19190610f85565b90508034146102e5576040517f08c379a00000000000000000000000000000000000000000000000000000000081526004016102dc90611012565b60405180910390fd5b5f3490505f5b60025f8581526020019081526020015f2080549050811015610426573373ffffffffffffffffffffffffffffffffffffffff1660025f8681526020019081526020015f20828154811061034157610340611030565b5b905f5260205f2090600502015f015f9054906101000a900473ffffffffffffffffffffffffffffffffffffffff1673ffffffffffffffffffffffffffffffffffffffff161480156103c357508160025f8681526020019081526020015f2082815481106103b1576103b0611030565b5b905f5260205f20906005020160010154145b1561041357600160025f8681526020019081526020015f2082815481106103ed576103ec611030565b5b905f5260205f2090600502016004015f6101000a81548160ff0219169083151502179055505b808061041e9061105d565b9150506102eb565b505f808481526020019081526020015f205f015f9054906101000a900473ffffffffffffffffffffffffffffffffffffffff1673ffffffffffffffffffffffffffffffffffffffff166108fc3490811502906040515f60405180830381858888f1935050505015801561049b573d5f803e3d5ffd5b50505050565b60605f60018054905067ffffffffffffffff8111156104c3576104c26110a4565b5b6040519080825280602002602001820160405280156104fc57816020015b6104e9610a29565b8152602001906001900390816104e15790505b5090505f5b600180549050811015610602575f806001838154811061052457610523611030565b5b905f5260205f20015481526020019081526020015f206040518060a00160405290815f82015f9054906101000a900473ffffffffffffffffffffffffffffffffffffffff1673ffffffffffffffffffffffffffffffffffffffff1673ffffffffffffffffffffffffffffffffffffffff168152602001600182015481526020016002820154815260200160038201548152602001600482015f9054906101000a900460ff1615151515815250508282815181106105e4576105e3611030565b5b602002602001018190525080806105fa9061105d565b915050610501565b508091505090565b6002602052815f5260405f208181548110610623575f80fd5b905f5260205f2090600502015f9150915050805f015f9054906101000a900473ffffffffffffffffffffffffffffffffffffffff1690806001015490806002015490806003015490806004015f9054906101000a900460ff16905085565b5f6040518060a001604052803373ffffffffffffffffffffffffffffffffffffffff1681526020018481526020018381526020014281526020015f151581525090505f815f0151826020015183606001516040516020016106e493929190611136565b604051602081830303815290604052805190602001209050815f808381526020019081526020015f205f820151815f015f6101000a81548173ffffffffffffffffffffffffffffffffffffffff021916908373ffffffffffffffffffffffffffffffffffffffff1602179055506020820151816001015560408201518160020155606082015181600301556080820151816004015f6101000a81548160ff021916908315150217905550905050600181908060018154018082558091505060019003905f5260205f20015f909190919091505550505050565b5f815f808581526020019081526020015f20600101546107dd9190611172565b1161081d576040517f08c379a0000000000000000000000000000000000000000000000000000000008152600401610814906111ef565b60405180910390fd5b805f808481526020019081526020015f206001015f82825461083f9190611172565b9250508190555060025f8381526020019081526020015f206040518060a001604052803373ffffffffffffffffffffffffffffffffffffffff1681526020018381526020015f808681526020019081526020015f206002015481526020014281526020015f1515815250908060018154018082558091505060019003905f5260205f2090600502015f909190919091505f820151815f015f6101000a81548173ffffffffffffffffffffffffffffffffffffffff021916908373ffffffffffffffffffffffffffffffffffffffff1602179055506020820151816001015560408201518160020155606082015181600301556080820151816004015f6101000a81548160ff02191690831515021790555050503373ffffffffffffffffffffffffffffffffffffffff166108fc5f808581526020019081526020015f206001015490811502906040515f60405180830381858888f193505050501580156109a8573d5f803e3d5ffd5b505050565b600181815481106109bc575f80fd5b905f5260205f20015f915090505481565b5f602052805f5260405f205f91509050805f015f9054906101000a900473ffffffffffffffffffffffffffffffffffffffff1690806001015490806002015490806003015490806004015f9054906101000a900460ff16905085565b6040518060a001604052805f73ffffffffffffffffffffffffffffffffffffffff1681526020015f81526020015f81526020015f81526020015f151581525090565b5f81519050919050565b5f82825260208201905092915050565b5f819050602082019050919050565b5f819050919050565b610aa681610a94565b82525050565b5f610ab78383610a9d565b60208301905092915050565b5f602082019050919050565b5f610ad982610a6b565b610ae38185610a75565b9350610aee83610a85565b805f5b83811015610b1e578151610b058882610aac565b9750610b1083610ac3565b925050600181019050610af1565b5085935050505092915050565b5f6020820190508181035f830152610b438184610acf565b905092915050565b5f80fd5b610b5881610a94565b8114610b62575f80fd5b50565b5f81359050610b7381610b4f565b92915050565b5f60208284031215610b8e57610b8d610b4b565b5b5f610b9b84828501610b65565b91505092915050565b5f81519050919050565b5f82825260208201905092915050565b5f819050602082019050919050565b5f73ffffffffffffffffffffffffffffffffffffffff82169050919050565b5f610bf682610bcd565b9050919050565b610c0681610bec565b82525050565b5f819050919050565b610c1e81610c0c565b82525050565b5f8115159050919050565b610c3881610c24565b82525050565b60a082015f820151610c525f850182610bfd565b506020820151610c656020850182610c15565b506040820151610c786040850182610c15565b506060820151610c8b6060850182610c15565b506080820151610c9e6080850182610c2f565b50505050565b5f610caf8383610c3e565b60a08301905092915050565b5f602082019050919050565b5f610cd182610ba4565b610cdb8185610bae565b9350610ce683610bbe565b805f5b83811015610d16578151610cfd8882610ca4565b9750610d0883610cbb565b925050600181019050610ce9565b5085935050505092915050565b5f6020820190508181035f830152610d3b8184610cc7565b905092915050565b610d4c81610c0c565b8114610d56575f80fd5b50565b5f81359050610d6781610d43565b92915050565b5f8060408385031215610d8357610d82610b4b565b5b5f610d9085828601610b65565b9250506020610da185828601610d59565b9150509250929050565b610db481610bec565b82525050565b610dc381610c0c565b82525050565b610dd281610c24565b82525050565b5f60a082019050610deb5f830188610dab565b610df86020830187610dba565b610e056040830186610dba565b610e126060830185610dba565b610e1f6080830184610dc9565b9695505050505050565b5f8060408385031215610e3f57610e3e610b4b565b5b5f610e4c85828601610d59565b9250506020610e5d85828601610d59565b9150509250929050565b5f60208284031215610e7c57610e7b610b4b565b5b5f610e8984828501610d59565b91505092915050565b610e9b81610a94565b82525050565b5f602082019050610eb45f830184610e92565b92915050565b7f4e487b71000000000000000000000000000000000000000000000000000000005f52601160045260245ffd5b5f610ef182610c0c565b9150610efc83610c0c565b9250828202610f0a81610c0c565b91508282048414831517610f2157610f20610eba565b5b5092915050565b7f4e487b71000000000000000000000000000000000000000000000000000000005f52601260045260245ffd5b5f610f5f82610c0c565b9150610f6a83610c0c565b925082610f7a57610f79610f28565b5b828204905092915050565b5f610f8f82610c0c565b9150610f9a83610c0c565b9250828201905080821115610fb257610fb1610eba565b5b92915050565b5f82825260208201905092915050565b7f506c65617365207061792074686520657861637420616d6f756e7400000000005f82015250565b5f610ffc601b83610fb8565b915061100782610fc8565b602082019050919050565b5f6020820190508181035f83015261102981610ff0565b9050919050565b7f4e487b71000000000000000000000000000000000000000000000000000000005f52603260045260245ffd5b5f61106782610c0c565b91507fffffffffffffffffffffffffffffffffffffffffffffffffffffffffffffffff820361109957611098610eba565b5b600182019050919050565b7f4e487b71000000000000000000000000000000000000000000000000000000005f52604160045260245ffd5b5f8160601b9050919050565b5f6110e7826110d1565b9050919050565b5f6110f8826110dd565b9050919050565b61111061110b82610bec565b6110ee565b82525050565b5f819050919050565b61113061112b82610c0c565b611116565b82525050565b5f61114182866110ff565b601482019150611151828561111f565b602082019150611161828461111f565b602082019150819050949350505050565b5f61117c82610c0c565b915061118783610c0c565b925082820390508181111561119f5761119e610eba565b5b92915050565b7f6e6f7420656e6f75676820616d6f756e740000000000000000000000000000005f82015250565b5f6111d9601183610fb8565b91506111e4826111a5565b602082019050919050565b5f6020820190508181035f830152611206816111cd565b905091905056fea264697066735822122004a9874f4aec644044bc745af35ef8cbb994a754b5c6d4300a4e3db4038bb06364736f6c63430008150033",
  "immutableReferences": {},
  "source": "// SPDX-License-Identifier: MIT\n\npragma solidity ^0.8.7;\n\ncontract BorrowLend {\n    struct Loan {\n        address owner;\n        uint amount;\n        uint interest;\n        uint timestamp;\n        bool isPaid;\n    }\n\n    mapping(bytes32 => Loan) public availableLoans;\n    bytes32[] public availableLoansKeys;\n\n    mapping(bytes32 => Loan[]) public loansTaken;\n\n    function createLoan(uint _amount, uint _interest) public payable {\n        Loan memory loan = Loan(msg.sender, _amount, _interest, block.timestamp, false);\n        bytes32 hashValue = keccak256(abi.encodePacked(loan.owner, loan.amount, loan.timestamp));\n        availableLoans[hashValue] = loan;\n        availableLoansKeys.push(hashValue);\n    }\n\n    function getLoan(bytes32 _loanId, uint _amount) public {\n        require(availableLoans[_loanId].amount - _amount > 0, \"not enough amount\");\n        availableLoans[_loanId].amount -= _amount;\n        loansTaken[_loanId].push(Loan(msg.sender, _amount, availableLoans[_loanId].interest, block.timestamp, false));\n        payable(msg.sender).transfer(availableLoans[_loanId].amount);\n    }\n\n    function repayLoan(bytes32 _loanId) public payable  {\n        uint total_principle = availableLoans[_loanId].amount * availableLoans[_loanId].interest/100 + availableLoans[_loanId].amount;\n        require(msg.value == total_principle, \"Please pay the exact amount\");\n        uint _amount = msg.value;\n        for(uint i = 0; i < loansTaken[_loanId].length; i++) {\n            if(loansTaken[_loanId][i].owner == msg.sender && loansTaken[_loanId][i].amount == _amount) {\n                loansTaken[_loanId][i].isPaid = true;\n            }\n        }\n        payable(availableLoans[_loanId].owner).transfer(msg.value);\n    }\n\n    function getAvailableLoans() public view returns (Loan[] memory) {\n        Loan[] memory allLoans = new Loan[](availableLoansKeys.length);\n        for(uint i = 0; i < availableLoansKeys.length; i++) {\n            allLoans[i] = availableLoans[availableLoansKeys[i]];\n        }\n        return allLoans;\n    }\n\n    function getAvailableLoansKeys() public view returns(bytes32[] memory) {\n        return availableLoansKeys;\n    }\n\n}\n",
  "sourcePath": "/home/wesleylewis/Desktop/hackathons/mlsccoherence_Hrushi-k-dost/truffle/contracts/BorrowLend.sol",
  "compiler": {
    "name": "solc",
    "version": "0.8.21+commit.d9974bed.Emscripten.clang"
  },
  "schemaVersion": "3.4.11",
  "updatedAt": "2024-03-23T18:11:26.918Z",
  "devdoc": {
    "kind": "dev",
    "methods": {},
    "version": 1
  },
  "userdoc": {
    "kind": "user",
    "methods": {},
    "version": 1
  }
}