{
  "contractName": "FinanceApp",
  "abi": [
    {
      "inputs": [],
      "stateMutability": "nonpayable",
      "type": "constructor"
    },
    {
      "inputs": [
        {
          "internalType": "uint256",
          "name": "",
          "type": "uint256"
        }
      ],
      "name": "allLoans",
      "outputs": [
        {
          "internalType": "address",
          "name": "owner",
          "type": "address"
        },
        {
          "internalType": "uint256",
          "name": "amount",
          "type": "uint256"
        },
        {
          "internalType": "uint256",
          "name": "interest",
          "type": "uint256"
        },
        {
          "internalType": "uint256",
          "name": "index",
          "type": "uint256"
        },
        {
          "internalType": "uint256",
          "name": "ownerIndex",
          "type": "uint256"
        }
      ],
      "stateMutability": "view",
      "type": "function"
    },
    {
      "inputs": [
        {
          "internalType": "address",
          "name": "_user",
          "type": "address"
        }
      ],
      "name": "addUser",
      "outputs": [],
      "stateMutability": "nonpayable",
      "type": "function"
    },
    {
      "inputs": [
        {
          "internalType": "uint256",
          "name": "_interest",
          "type": "uint256"
        }
      ],
      "name": "listLoan",
      "outputs": [],
      "stateMutability": "payable",
      "type": "function"
    },
    {
      "inputs": [
        {
          "internalType": "uint256",
          "name": "_loanIndex",
          "type": "uint256"
        },
        {
          "internalType": "address",
          "name": "_lender",
          "type": "address"
        },
        {
          "internalType": "uint256",
          "name": "_lenderIndex",
          "type": "uint256"
        },
        {
          "internalType": "uint256",
          "name": "_amount",
          "type": "uint256"
        }
      ],
      "name": "borrow",
      "outputs": [],
      "stateMutability": "payable",
      "type": "function"
    },
    {
      "inputs": [
        {
          "internalType": "address",
          "name": "_user",
          "type": "address"
        }
      ],
      "name": "viewUserDataExpanded",
      "outputs": [
        {
          "internalType": "address",
          "name": "",
          "type": "address"
        },
        {
          "components": [
            {
              "internalType": "address",
              "name": "owner",
              "type": "address"
            },
            {
              "internalType": "uint256",
              "name": "amount",
              "type": "uint256"
            },
            {
              "internalType": "uint256",
              "name": "interest",
              "type": "uint256"
            },
            {
              "internalType": "uint256",
              "name": "index",
              "type": "uint256"
            },
            {
              "internalType": "uint256",
              "name": "ownerIndex",
              "type": "uint256"
            }
          ],
          "internalType": "struct FinanceApp.Loan[]",
          "name": "",
          "type": "tuple[]"
        },
        {
          "components": [
            {
              "internalType": "address",
              "name": "lender",
              "type": "address"
            },
            {
              "internalType": "uint256",
              "name": "amount",
              "type": "uint256"
            },
            {
              "internalType": "uint256",
              "name": "interest",
              "type": "uint256"
            },
            {
              "internalType": "uint256",
              "name": "timestamp",
              "type": "uint256"
            }
          ],
          "internalType": "struct FinanceApp.LoanTaken[]",
          "name": "",
          "type": "tuple[]"
        },
        {
          "components": [
            {
              "internalType": "address",
              "name": "borrower",
              "type": "address"
            },
            {
              "internalType": "uint256",
              "name": "amount",
              "type": "uint256"
            },
            {
              "internalType": "uint256",
              "name": "interest",
              "type": "uint256"
            },
            {
              "internalType": "uint256",
              "name": "timestamp",
              "type": "uint256"
            }
          ],
          "internalType": "struct FinanceApp.LoanGiven[]",
          "name": "",
          "type": "tuple[]"
        }
      ],
      "stateMutability": "view",
      "type": "function"
    },
    {
      "inputs": [
        {
          "internalType": "address",
          "name": "_user",
          "type": "address"
        }
      ],
      "name": "viewUserData",
      "outputs": [
        {
          "components": [
            {
              "internalType": "bool",
              "name": "userExists",
              "type": "bool"
            },
            {
              "internalType": "address",
              "name": "addr",
              "type": "address"
            },
            {
              "components": [
                {
                  "internalType": "address",
                  "name": "owner",
                  "type": "address"
                },
                {
                  "internalType": "uint256",
                  "name": "amount",
                  "type": "uint256"
                },
                {
                  "internalType": "uint256",
                  "name": "interest",
                  "type": "uint256"
                },
                {
                  "internalType": "uint256",
                  "name": "index",
                  "type": "uint256"
                },
                {
                  "internalType": "uint256",
                  "name": "ownerIndex",
                  "type": "uint256"
                }
              ],
              "internalType": "struct FinanceApp.Loan[]",
              "name": "loans",
              "type": "tuple[]"
            },
            {
              "components": [
                {
                  "internalType": "address",
                  "name": "lender",
                  "type": "address"
                },
                {
                  "internalType": "uint256",
                  "name": "amount",
                  "type": "uint256"
                },
                {
                  "internalType": "uint256",
                  "name": "interest",
                  "type": "uint256"
                },
                {
                  "internalType": "uint256",
                  "name": "timestamp",
                  "type": "uint256"
                }
              ],
              "internalType": "struct FinanceApp.LoanTaken[]",
              "name": "lenders",
              "type": "tuple[]"
            },
            {
              "components": [
                {
                  "internalType": "address",
                  "name": "borrower",
                  "type": "address"
                },
                {
                  "internalType": "uint256",
                  "name": "amount",
                  "type": "uint256"
                },
                {
                  "internalType": "uint256",
                  "name": "interest",
                  "type": "uint256"
                },
                {
                  "internalType": "uint256",
                  "name": "timestamp",
                  "type": "uint256"
                }
              ],
              "internalType": "struct FinanceApp.LoanGiven[]",
              "name": "borrowers",
              "type": "tuple[]"
            }
          ],
          "internalType": "struct FinanceApp.User",
          "name": "",
          "type": "tuple"
        }
      ],
      "stateMutability": "view",
      "type": "function"
    }
  ],
  "bytecode": "0x608060405234801561000f575f80fd5b50335f806101000a81548173ffffffffffffffffffffffffffffffffffffffff021916908373ffffffffffffffffffffffffffffffffffffffff1602179055506118d28061005c5f395ff3fe608060405260043610610054575f3560e01c80631b8a35481461005857806328ba295a14610098578063421b2d8b146100d45780637f379643146100fc5780638327c2141461013b578063c9bb8cad14610157575b5f80fd5b348015610063575f80fd5b5061007e600480360381019061007991906110d2565b610173565b60405161008f95949392919061114b565b60405180910390f35b3480156100a3575f80fd5b506100be60048036038101906100b991906111c6565b6101d3565b6040516100cb91906115ae565b60405180910390f35b3480156100df575f80fd5b506100fa60048036038101906100f591906111c6565b61050c565b005b348015610107575f80fd5b50610122600480360381019061011d91906111c6565b6106ee565b6040516101329493929190611712565b60405180910390f35b6101556004803603810190610150919061176a565b610a85565b005b610171600480360381019061016c91906110d2565b610ddf565b005b60038181548110610182575f80fd5b905f5260205f2090600502015f91509050805f015f9054906101000a900473ffffffffffffffffffffffffffffffffffffffff16908060010154908060020154908060030154908060040154905085565b6101db611056565b60015f8373ffffffffffffffffffffffffffffffffffffffff1673ffffffffffffffffffffffffffffffffffffffff1681526020019081526020015f206040518060a00160405290815f82015f9054906101000a900460ff161515151581526020015f820160019054906101000a900473ffffffffffffffffffffffffffffffffffffffff1673ffffffffffffffffffffffffffffffffffffffff1673ffffffffffffffffffffffffffffffffffffffff16815260200160018201805480602002602001604051908101604052809291908181526020015f905b82821015610361578382905f5260205f2090600502016040518060a00160405290815f82015f9054906101000a900473ffffffffffffffffffffffffffffffffffffffff1673ffffffffffffffffffffffffffffffffffffffff1673ffffffffffffffffffffffffffffffffffffffff168152602001600182015481526020016002820154815260200160038201548152602001600482015481525050815260200190600101906102b5565b50505050815260200160028201805480602002602001604051908101604052809291908181526020015f905b8282101561042f578382905f5260205f2090600402016040518060800160405290815f82015f9054906101000a900473ffffffffffffffffffffffffffffffffffffffff1673ffffffffffffffffffffffffffffffffffffffff1673ffffffffffffffffffffffffffffffffffffffff16815260200160018201548152602001600282015481526020016003820154815250508152602001906001019061038d565b50505050815260200160038201805480602002602001604051908101604052809291908181526020015f905b828210156104fd578382905f5260205f2090600402016040518060800160405290815f82015f9054906101000a900473ffffffffffffffffffffffffffffffffffffffff1673ffffffffffffffffffffffffffffffffffffffff1673ffffffffffffffffffffffffffffffffffffffff16815260200160018201548152602001600282015481526020016003820154815250508152602001906001019061045b565b50505050815250509050919050565b5f8054906101000a900473ffffffffffffffffffffffffffffffffffffffff1673ffffffffffffffffffffffffffffffffffffffff163373ffffffffffffffffffffffffffffffffffffffff1614610562575f80fd5b60015f8273ffffffffffffffffffffffffffffffffffffffff1673ffffffffffffffffffffffffffffffffffffffff1681526020019081526020015f205f015f9054906101000a900460ff16156105b7575f80fd5b600281908060018154018082558091505060019003905f5260205f20015f9091909190916101000a81548173ffffffffffffffffffffffffffffffffffffffff021916908373ffffffffffffffffffffffffffffffffffffffff1602179055508060015f8373ffffffffffffffffffffffffffffffffffffffff1673ffffffffffffffffffffffffffffffffffffffff1681526020019081526020015f205f0160016101000a81548173ffffffffffffffffffffffffffffffffffffffff021916908373ffffffffffffffffffffffffffffffffffffffff1602179055506001805f8373ffffffffffffffffffffffffffffffffffffffff1673ffffffffffffffffffffffffffffffffffffffff1681526020019081526020015f205f015f6101000a81548160ff02191690831515021790555050565b5f606080606060015f8673ffffffffffffffffffffffffffffffffffffffff1673ffffffffffffffffffffffffffffffffffffffff1681526020019081526020015f205f0160019054906101000a900473ffffffffffffffffffffffffffffffffffffffff1660015f8773ffffffffffffffffffffffffffffffffffffffff1673ffffffffffffffffffffffffffffffffffffffff1681526020019081526020015f2060010160015f8873ffffffffffffffffffffffffffffffffffffffff1673ffffffffffffffffffffffffffffffffffffffff1681526020019081526020015f2060020160015f8973ffffffffffffffffffffffffffffffffffffffff1673ffffffffffffffffffffffffffffffffffffffff1681526020019081526020015f2060030182805480602002602001604051908101604052809291908181526020015f905b828210156108e0578382905f5260205f2090600502016040518060a00160405290815f82015f9054906101000a900473ffffffffffffffffffffffffffffffffffffffff1673ffffffffffffffffffffffffffffffffffffffff1673ffffffffffffffffffffffffffffffffffffffff16815260200160018201548152602001600282015481526020016003820154815260200160048201548152505081526020019060010190610834565b50505050925081805480602002602001604051908101604052809291908181526020015f905b828210156109a8578382905f5260205f2090600402016040518060800160405290815f82015f9054906101000a900473ffffffffffffffffffffffffffffffffffffffff1673ffffffffffffffffffffffffffffffffffffffff1673ffffffffffffffffffffffffffffffffffffffff168152602001600182015481526020016002820154815260200160038201548152505081526020019060010190610906565b50505050915080805480602002602001604051908101604052809291908181526020015f905b82821015610a70578382905f5260205f2090600402016040518060800160405290815f82015f9054906101000a900473ffffffffffffffffffffffffffffffffffffffff1673ffffffffffffffffffffffffffffffffffffffff1673ffffffffffffffffffffffffffffffffffffffff1681526020016001820154815260200160028201548152602001600382015481525050815260200190600101906109ce565b50505050905093509350935093509193509193565b670de0b6b3a764000081610a9991906117fb565b60038581548110610aad57610aac61183c565b5b905f5260205f2090600502016001015f828254610aca9190611869565b9250508190555060015f3373ffffffffffffffffffffffffffffffffffffffff1673ffffffffffffffffffffffffffffffffffffffff1681526020019081526020015f2060020160405180608001604052808573ffffffffffffffffffffffffffffffffffffffff16815260200183815260200160015f8773ffffffffffffffffffffffffffffffffffffffff1673ffffffffffffffffffffffffffffffffffffffff1681526020019081526020015f206001018581548110610b9057610b8f61183c565b5b905f5260205f20906005020160020154815260200142815250908060018154018082558091505060019003905f5260205f2090600402015f909190919091505f820151815f015f6101000a81548173ffffffffffffffffffffffffffffffffffffffff021916908373ffffffffffffffffffffffffffffffffffffffff160217905550602082015181600101556040820151816002015560608201518160030155505060015f8473ffffffffffffffffffffffffffffffffffffffff1673ffffffffffffffffffffffffffffffffffffffff1681526020019081526020015f2060030160405180608001604052803373ffffffffffffffffffffffffffffffffffffffff16815260200183815260200160015f8773ffffffffffffffffffffffffffffffffffffffff1673ffffffffffffffffffffffffffffffffffffffff1681526020019081526020015f206001018581548110610cf257610cf161183c565b5b905f5260205f20906005020160020154815260200142815250908060018154018082558091505060019003905f5260205f2090600402015f909190919091505f820151815f015f6101000a81548173ffffffffffffffffffffffffffffffffffffffff021916908373ffffffffffffffffffffffffffffffffffffffff16021790555060208201518160010155604082015181600201556060820151816003015550503373ffffffffffffffffffffffffffffffffffffffff166108fc8290811502906040515f60405180830381858888f19350505050158015610dd8573d5f803e3d5ffd5b5050505050565b60036040518060a001604052803373ffffffffffffffffffffffffffffffffffffffff168152602001348152602001838152602001600380549050815260200160015f3373ffffffffffffffffffffffffffffffffffffffff1673ffffffffffffffffffffffffffffffffffffffff1681526020019081526020015f2060010180549050815250908060018154018082558091505060019003905f5260205f2090600502015f909190919091505f820151815f015f6101000a81548173ffffffffffffffffffffffffffffffffffffffff021916908373ffffffffffffffffffffffffffffffffffffffff16021790555060208201518160010155604082015181600201556060820151816003015560808201518160040155505060015f3373ffffffffffffffffffffffffffffffffffffffff1673ffffffffffffffffffffffffffffffffffffffff1681526020019081526020015f206001016040518060a001604052803373ffffffffffffffffffffffffffffffffffffffff168152602001348152602001838152602001600380549050815260200160015f3373ffffffffffffffffffffffffffffffffffffffff1673ffffffffffffffffffffffffffffffffffffffff1681526020019081526020015f2060010180549050815250908060018154018082558091505060019003905f5260205f2090600502015f909190919091505f820151815f015f6101000a81548173ffffffffffffffffffffffffffffffffffffffff021916908373ffffffffffffffffffffffffffffffffffffffff16021790555060208201518160010155604082015181600201556060820151816003015560808201518160040155505050565b6040518060a001604052805f151581526020015f73ffffffffffffffffffffffffffffffffffffffff1681526020016060815260200160608152602001606081525090565b5f80fd5b5f819050919050565b6110b18161109f565b81146110bb575f80fd5b50565b5f813590506110cc816110a8565b92915050565b5f602082840312156110e7576110e661109b565b5b5f6110f4848285016110be565b91505092915050565b5f73ffffffffffffffffffffffffffffffffffffffff82169050919050565b5f611126826110fd565b9050919050565b6111368161111c565b82525050565b6111458161109f565b82525050565b5f60a08201905061115e5f83018861112d565b61116b602083018761113c565b611178604083018661113c565b611185606083018561113c565b611192608083018461113c565b9695505050505050565b6111a58161111c565b81146111af575f80fd5b50565b5f813590506111c08161119c565b92915050565b5f602082840312156111db576111da61109b565b5b5f6111e8848285016111b2565b91505092915050565b5f8115159050919050565b611205816111f1565b82525050565b6112148161111c565b82525050565b5f81519050919050565b5f82825260208201905092915050565b5f819050602082019050919050565b61124c8161109f565b82525050565b60a082015f8201516112665f85018261120b565b5060208201516112796020850182611243565b50604082015161128c6040850182611243565b50606082015161129f6060850182611243565b5060808201516112b26080850182611243565b50505050565b5f6112c38383611252565b60a08301905092915050565b5f602082019050919050565b5f6112e58261121a565b6112ef8185611224565b93506112fa83611234565b805f5b8381101561132a57815161131188826112b8565b975061131c836112cf565b9250506001810190506112fd565b5085935050505092915050565b5f81519050919050565b5f82825260208201905092915050565b5f819050602082019050919050565b608082015f8201516113745f85018261120b565b5060208201516113876020850182611243565b50604082015161139a6040850182611243565b5060608201516113ad6060850182611243565b50505050565b5f6113be8383611360565b60808301905092915050565b5f602082019050919050565b5f6113e082611337565b6113ea8185611341565b93506113f583611351565b805f5b8381101561142557815161140c88826113b3565b9750611417836113ca565b9250506001810190506113f8565b5085935050505092915050565b5f81519050919050565b5f82825260208201905092915050565b5f819050602082019050919050565b608082015f82015161146f5f85018261120b565b5060208201516114826020850182611243565b5060408201516114956040850182611243565b5060608201516114a86060850182611243565b50505050565b5f6114b9838361145b565b60808301905092915050565b5f602082019050919050565b5f6114db82611432565b6114e5818561143c565b93506114f08361144c565b805f5b8381101561152057815161150788826114ae565b9750611512836114c5565b9250506001810190506114f3565b5085935050505092915050565b5f60a083015f8301516115425f8601826111fc565b506020830151611555602086018261120b565b506040830151848203604086015261156d82826112db565b9150506060830151848203606086015261158782826113d6565b915050608083015184820360808601526115a182826114d1565b9150508091505092915050565b5f6020820190508181035f8301526115c6818461152d565b905092915050565b5f82825260208201905092915050565b5f6115e88261121a565b6115f281856115ce565b93506115fd83611234565b805f5b8381101561162d57815161161488826112b8565b975061161f836112cf565b925050600181019050611600565b5085935050505092915050565b5f82825260208201905092915050565b5f61165482611337565b61165e818561163a565b935061166983611351565b805f5b8381101561169957815161168088826113b3565b975061168b836113ca565b92505060018101905061166c565b5085935050505092915050565b5f82825260208201905092915050565b5f6116c082611432565b6116ca81856116a6565b93506116d58361144c565b805f5b838110156117055781516116ec88826114ae565b97506116f7836114c5565b9250506001810190506116d8565b5085935050505092915050565b5f6080820190506117255f83018761112d565b818103602083015261173781866115de565b9050818103604083015261174b818561164a565b9050818103606083015261175f81846116b6565b905095945050505050565b5f805f80608085870312156117825761178161109b565b5b5f61178f878288016110be565b94505060206117a0878288016111b2565b93505060406117b1878288016110be565b92505060606117c2878288016110be565b91505092959194509250565b7f4e487b71000000000000000000000000000000000000000000000000000000005f52601160045260245ffd5b5f6118058261109f565b91506118108361109f565b925082820261181e8161109f565b91508282048414831517611835576118346117ce565b5b5092915050565b7f4e487b71000000000000000000000000000000000000000000000000000000005f52603260045260245ffd5b5f6118738261109f565b915061187e8361109f565b9250828203905081811115611896576118956117ce565b5b9291505056fea26469706673582212205056c55095620a321a44186d07f2f112e3ba11cebfb3607c4f7558f185270e7f64736f6c63430008150033",
  "immutableReferences": {},
  "source": "//SPDX-License-Identifier: MIT\npragma solidity ^0.8.0;\n\ncontract FinanceApp {\n\n    constructor() {\n        owner = msg.sender;\n    }\n\n    modifier onlyOwner(){\n        require(msg.sender == owner);\n        _;\n    }\n\n    struct LoanTaken{\n        address lender;\n        uint amount;\n        uint interest;\n        uint timestamp;\n    }\n    struct LoanGiven{\n        address borrower;\n        uint amount;\n        uint interest;\n        uint timestamp;\n    }\n    struct Loan{\n        address owner;\n        uint amount;\n        uint interest;\n        uint index;\n        uint ownerIndex;\n    }\n    struct User {\n        bool userExists;\n        address addr;\n        Loan[] loans;\n        LoanTaken[] lenders;\n        LoanGiven[] borrowers;\n    }\n\n    // struct LendMoney{\n    //     address owner;\n    //     uint amount;\n    //     uint interest;\n    //     address[] lenders;\n    // }\n\n    address private owner;\n    // mapping (address => User) public users;\n    mapping (address => User) users;\n    address[] userAddresses;\n    Loan[] public allLoans;\n\n    function addUser(address _user) public onlyOwner{\n        require(!users[_user].userExists);\n        userAddresses.push(_user);\n        users[_user].addr = _user;\n        users[_user].userExists = true;\n    }\n\n    function listLoan(uint _interest) public payable {\n        allLoans.push(Loan(msg.sender,msg.value,_interest,allLoans.length,users[msg.sender].loans.length));\n        users[msg.sender].loans.push(Loan(msg.sender,msg.value,_interest,allLoans.length,users[msg.sender].loans.length));\n    }\n\n    function borrow(uint _loanIndex, address _lender, uint _lenderIndex, uint _amount) public payable{\n        // require();\n        allLoans[_loanIndex].amount -= _amount * 1 ether;\n        users[msg.sender].lenders.push(LoanTaken(_lender, _amount, users[_lender].loans[_lenderIndex].interest, block.timestamp));\n        users[_lender].borrowers.push(LoanGiven(msg.sender, _amount, users[_lender].loans[_lenderIndex].interest, block.timestamp));\n        payable(msg.sender).transfer(_amount);\n    }\n\n    function viewUserDataExpanded(address _user) public view returns(address, Loan[] memory, LoanTaken[]memory, LoanGiven[] memory){\n        return (users[_user].addr, users[_user].loans, users[_user].lenders, users[_user].borrowers);\n    } \n    function viewUserData(address _user) public view returns(User memory){\n        return (users[_user]);\n    } \n}",
  "sourcePath": "/home/wesleylewis/Desktop/hackathons/mlsccoherence_Hrushi-k-dost/truffle/contracts/FinanceApp.sol",
  "compiler": {
    "name": "solc",
    "version": "0.8.21+commit.d9974bed.Emscripten.clang"
  },
  "schemaVersion": "3.4.11",
  "updatedAt": "2024-03-23T18:09:09.390Z",
  "devdoc": {
    "kind": "dev",
    "methods": {},
    "version": 1
  },
  "userdoc": {
    "kind": "user",
    "methods": {},
    "version": 1
  }
}